{
  "contractName": "WhiteListDocuments",
  "abi": [
    {
      "constant": true,
      "inputs": [
        {
          "name": "",
          "type": "bytes32"
        }
      ],
      "name": "documents",
      "outputs": [
        {
          "name": "docHash",
          "type": "bytes32"
        },
        {
          "name": "lastModified",
          "type": "uint256"
        },
        {
          "name": "uri",
          "type": "string"
        }
      ],
      "payable": false,
      "stateMutability": "view",
      "type": "function",
      "signature": "0x2b2805db"
    },
    {
      "constant": true,
      "inputs": [
        {
          "name": "",
          "type": "address"
        }
      ],
      "name": "whiteList",
      "outputs": [
        {
          "name": "",
          "type": "bool"
        }
      ],
      "payable": false,
      "stateMutability": "view",
      "type": "function",
      "signature": "0x372c12b1"
    },
    {
      "constant": true,
      "inputs": [],
      "name": "owner",
      "outputs": [
        {
          "name": "",
          "type": "address"
        }
      ],
      "payable": false,
      "stateMutability": "view",
      "type": "function",
      "signature": "0x8da5cb5b"
    },
    {
      "inputs": [],
      "payable": false,
      "stateMutability": "nonpayable",
      "type": "constructor",
      "signature": "constructor"
    },
    {
      "anonymous": false,
      "inputs": [
        {
          "indexed": true,
          "name": "_added",
          "type": "address"
        },
        {
          "indexed": false,
          "name": "_by",
          "type": "address"
        },
        {
          "indexed": false,
          "name": "_timestamp",
          "type": "uint256"
        }
      ],
      "name": "AddToWhiteList",
      "type": "event",
      "signature": "0x05ea6f4ddb1b34b9ed97f8b9191c9c7c71557db5776591681adb4476df3d98ee"
    },
    {
      "anonymous": false,
      "inputs": [
        {
          "indexed": true,
          "name": "_removed",
          "type": "address"
        },
        {
          "indexed": false,
          "name": "_by",
          "type": "address"
        },
        {
          "indexed": false,
          "name": "_timestamp",
          "type": "uint256"
        }
      ],
      "name": "RemoveFromWhiteList",
      "type": "event",
      "signature": "0xe89d82151ba2ddace9270ecdf76cb1d2feb27f15b5c8e9e78f022ad8d5076d38"
    },
    {
      "anonymous": false,
      "inputs": [
        {
          "indexed": true,
          "name": "_newOwner",
          "type": "address"
        },
        {
          "indexed": false,
          "name": "_oldOwner",
          "type": "address"
        },
        {
          "indexed": false,
          "name": "_timestamp",
          "type": "uint256"
        }
      ],
      "name": "TransferOwner",
      "type": "event",
      "signature": "0x080c6eacaf9a7f75f68671cdda44138d24c40315e36ad73a0e879a4e28356a34"
    },
    {
      "anonymous": false,
      "inputs": [
        {
          "indexed": true,
          "name": "_name",
          "type": "bytes32"
        },
        {
          "indexed": false,
          "name": "_uri",
          "type": "string"
        },
        {
          "indexed": false,
          "name": "_documentHash",
          "type": "bytes32"
        }
      ],
      "name": "DocumentRemoved",
      "type": "event",
      "signature": "0x3d9bba27d3e360d8c80645beed7e991454a8271bf6f269a24f7782be0f0d0654"
    },
    {
      "anonymous": false,
      "inputs": [
        {
          "indexed": true,
          "name": "_name",
          "type": "bytes32"
        },
        {
          "indexed": false,
          "name": "_uri",
          "type": "string"
        },
        {
          "indexed": false,
          "name": "_documentHash",
          "type": "bytes32"
        }
      ],
      "name": "DocumentUpdated",
      "type": "event",
      "signature": "0xb4c22d60cd550a815744f04e3ff5278bf19684565ee00e2b084041b6024bd6f6"
    },
    {
      "constant": false,
      "inputs": [
        {
          "name": "_newOwner",
          "type": "address"
        }
      ],
      "name": "transferOwner",
      "outputs": [],
      "payable": false,
      "stateMutability": "nonpayable",
      "type": "function",
      "signature": "0x4fb2e45d"
    },
    {
      "constant": false,
      "inputs": [
        {
          "name": "_add",
          "type": "address"
        }
      ],
      "name": "addToWhiteList",
      "outputs": [],
      "payable": false,
      "stateMutability": "nonpayable",
      "type": "function",
      "signature": "0x47ee0394"
    },
    {
      "constant": false,
      "inputs": [
        {
          "name": "_remove",
          "type": "address"
        }
      ],
      "name": "removeFromWhiteList",
      "outputs": [],
      "payable": false,
      "stateMutability": "nonpayable",
      "type": "function",
      "signature": "0x01bf6648"
    },
    {
      "constant": false,
      "inputs": [
        {
          "name": "_name",
          "type": "bytes32"
        },
        {
          "name": "_uri",
          "type": "string"
        },
        {
          "name": "_documentHash",
          "type": "bytes32"
        }
      ],
      "name": "setDocument",
      "outputs": [],
      "payable": false,
      "stateMutability": "nonpayable",
      "type": "function",
      "signature": "0x010648ca"
    },
    {
      "constant": false,
      "inputs": [
        {
          "name": "_name",
          "type": "bytes32"
        }
      ],
      "name": "removeDocument",
      "outputs": [],
      "payable": false,
      "stateMutability": "nonpayable",
      "type": "function",
      "signature": "0xc3501848"
    },
    {
      "constant": true,
      "inputs": [
        {
          "name": "_name",
          "type": "bytes32"
        }
      ],
      "name": "getDocument",
      "outputs": [
        {
          "name": "",
          "type": "string"
        },
        {
          "name": "",
          "type": "bytes32"
        },
        {
          "name": "",
          "type": "uint256"
        }
      ],
      "payable": false,
      "stateMutability": "view",
      "type": "function",
      "signature": "0xb10d6b41"
    },
    {
      "constant": true,
      "inputs": [],
      "name": "getAllDocuments",
      "outputs": [
        {
          "name": "",
          "type": "bytes32[]"
        }
      ],
      "payable": false,
      "stateMutability": "view",
      "type": "function",
      "signature": "0x9fa5f50b"
    }
  ],
  "bytecode": "0x608060405234801561001057600080fd5b50336000806101000a81548173ffffffffffffffffffffffffffffffffffffffff021916908373ffffffffffffffffffffffffffffffffffffffff16021790555060018060008060009054906101000a900473ffffffffffffffffffffffffffffffffffffffff1673ffffffffffffffffffffffffffffffffffffffff1673ffffffffffffffffffffffffffffffffffffffff16815260200190815260200160002060006101000a81548160ff0219169083151502179055503373ffffffffffffffffffffffffffffffffffffffff167f05ea6f4ddb1b34b9ed97f8b9191c9c7c71557db5776591681adb4476df3d98ee3042604051808373ffffffffffffffffffffffffffffffffffffffff1673ffffffffffffffffffffffffffffffffffffffff1681526020018281526020019250505060405180910390a26114d58061015a6000396000f3fe6080604052600436106100a4576000357c0100000000000000000000000000000000000000000000000000000000900463ffffffff168063010648ca146100a957806301bf6648146101435780632b2805db14610194578063372c12b11461025657806347ee0394146102bf5780634fb2e45d146103105780638da5cb5b146103615780639fa5f50b146103b8578063b10d6b4114610424578063c3501848146104e6575b600080fd5b3480156100b557600080fd5b50610141600480360360608110156100cc57600080fd5b8101908080359060200190929190803590602001906401000000008111156100f357600080fd5b82018360208201111561010557600080fd5b8035906020019184600183028401116401000000008311171561012757600080fd5b909192939192939080359060200190929190505050610521565b005b34801561014f57600080fd5b506101926004803603602081101561016657600080fd5b81019080803573ffffffffffffffffffffffffffffffffffffffff169060200190929190505050610747565b005b3480156101a057600080fd5b506101cd600480360360208110156101b757600080fd5b8101908080359060200190929190505050610909565b6040518084815260200183815260200180602001828103825283818151815260200191508051906020019080838360005b838110156102195780820151818401526020810190506101fe565b50505050905090810190601f1680156102465780820380516001836020036101000a031916815260200191505b5094505050505060405180910390f35b34801561026257600080fd5b506102a56004803603602081101561027957600080fd5b81019080803573ffffffffffffffffffffffffffffffffffffffff1690602001909291905050506109cb565b604051808215151515815260200191505060405180910390f35b3480156102cb57600080fd5b5061030e600480360360208110156102e257600080fd5b81019080803573ffffffffffffffffffffffffffffffffffffffff1690602001909291905050506109eb565b005b34801561031c57600080fd5b5061035f6004803603602081101561033357600080fd5b81019080803573ffffffffffffffffffffffffffffffffffffffff169060200190929190505050610bac565b005b34801561036d57600080fd5b50610376610f1d565b604051808273ffffffffffffffffffffffffffffffffffffffff1673ffffffffffffffffffffffffffffffffffffffff16815260200191505060405180910390f35b3480156103c457600080fd5b506103cd610f42565b6040518080602001828103825283818151815260200191508051906020019060200280838360005b838110156104105780820151818401526020810190506103f5565b505050509050019250505060405180910390f35b34801561043057600080fd5b5061045d6004803603602081101561044757600080fd5b8101908080359060200190929190505050610f9a565b6040518080602001848152602001838152602001828103825285818151815260200191508051906020019080838360005b838110156104a957808201518184015260208101905061048e565b50505050905090810190601f1680156104d65780820380516001836020036101000a031916815260200191505b5094505050505060405180910390f35b3480156104f257600080fd5b5061051f6004803603602081101561050957600080fd5b810190808035906020019092919050505061108c565b005b600160003373ffffffffffffffffffffffffffffffffffffffff1673ffffffffffffffffffffffffffffffffffffffff16815260200190815260200160002060009054906101000a900460ff1615156105e2576040517f08c379a000000000000000000000000000000000000000000000000000000000815260040180806020018281038252601e8152602001807f596f7520617265206e6f74206f6e20746865207768697465206c6973742e000081525060200191505060405180910390fd5b60006002600086815260200190815260200160002060010154141561062e5760038490806001815401808255809150509060018203906000526020600020016000909192909190915055505b60606040519081016040528082815260200142815260200184848080601f016020809104026020016040519081016040528093929190818152602001838380828437600081840152601f19601f8201169050808301925050505050505081525060026000868152602001908152602001600020600082015181600001556020820151816001015560408201518160020190805190602001906106d19291906113bc565b50905050837fb4c22d60cd550a815744f04e3ff5278bf19684565ee00e2b084041b6024bd6f684848460405180806020018381526020018281038252858582818152602001925080828437600081840152601f19601f82011690508083019250505094505050505060405180910390a250505050565b6000809054906101000a900473ffffffffffffffffffffffffffffffffffffffff1673ffffffffffffffffffffffffffffffffffffffff163373ffffffffffffffffffffffffffffffffffffffff1614151561080b576040517f08c379a00000000000000000000000000000000000000000000000000000000081526004018080602001828103825260168152602001807f596f7520617265206e6f7420746865206f776e65722e0000000000000000000081525060200191505060405180910390fd5b6000600160008373ffffffffffffffffffffffffffffffffffffffff1673ffffffffffffffffffffffffffffffffffffffff16815260200190815260200160002060006101000a81548160ff0219169083151502179055508073ffffffffffffffffffffffffffffffffffffffff167fe89d82151ba2ddace9270ecdf76cb1d2feb27f15b5c8e9e78f022ad8d5076d386000809054906101000a900473ffffffffffffffffffffffffffffffffffffffff1642604051808373ffffffffffffffffffffffffffffffffffffffff1673ffffffffffffffffffffffffffffffffffffffff1681526020018281526020019250505060405180910390a250565b6002602052806000526040600020600091509050806000015490806001015490806002018054600181600116156101000203166002900480601f0160208091040260200160405190810160405280929190818152602001828054600181600116156101000203166002900480156109c15780601f10610996576101008083540402835291602001916109c1565b820191906000526020600020905b8154815290600101906020018083116109a457829003601f168201915b5050505050905083565b60016020528060005260406000206000915054906101000a900460ff1681565b6000809054906101000a900473ffffffffffffffffffffffffffffffffffffffff1673ffffffffffffffffffffffffffffffffffffffff163373ffffffffffffffffffffffffffffffffffffffff16141515610aaf576040517f08c379a00000000000000000000000000000000000000000000000000000000081526004018080602001828103825260168152602001807f596f7520617265206e6f7420746865206f776e65722e0000000000000000000081525060200191505060405180910390fd5b60018060008373ffffffffffffffffffffffffffffffffffffffff1673ffffffffffffffffffffffffffffffffffffffff16815260200190815260200160002060006101000a81548160ff0219169083151502179055508073ffffffffffffffffffffffffffffffffffffffff167f05ea6f4ddb1b34b9ed97f8b9191c9c7c71557db5776591681adb4476df3d98ee6000809054906101000a900473ffffffffffffffffffffffffffffffffffffffff1642604051808373ffffffffffffffffffffffffffffffffffffffff1673ffffffffffffffffffffffffffffffffffffffff1681526020018281526020019250505060405180910390a250565b6000809054906101000a900473ffffffffffffffffffffffffffffffffffffffff1673ffffffffffffffffffffffffffffffffffffffff163373ffffffffffffffffffffffffffffffffffffffff16141515610c70576040517f08c379a00000000000000000000000000000000000000000000000000000000081526004018080602001828103825260168152602001807f596f7520617265206e6f7420746865206f776e65722e0000000000000000000081525060200191505060405180910390fd5b600160008273ffffffffffffffffffffffffffffffffffffffff1673ffffffffffffffffffffffffffffffffffffffff16815260200190815260200160002060009054906101000a900460ff161515610d1b5760018060008373ffffffffffffffffffffffffffffffffffffffff1673ffffffffffffffffffffffffffffffffffffffff16815260200190815260200160002060006101000a81548160ff0219169083151502179055505b6000600160008060009054906101000a900473ffffffffffffffffffffffffffffffffffffffff1673ffffffffffffffffffffffffffffffffffffffff1673ffffffffffffffffffffffffffffffffffffffff16815260200190815260200160002060006101000a81548160ff0219169083151502179055506000809054906101000a900473ffffffffffffffffffffffffffffffffffffffff1673ffffffffffffffffffffffffffffffffffffffff167fe89d82151ba2ddace9270ecdf76cb1d2feb27f15b5c8e9e78f022ad8d5076d388242604051808373ffffffffffffffffffffffffffffffffffffffff1673ffffffffffffffffffffffffffffffffffffffff1681526020018281526020019250505060405180910390a28073ffffffffffffffffffffffffffffffffffffffff167f080c6eacaf9a7f75f68671cdda44138d24c40315e36ad73a0e879a4e28356a346000809054906101000a900473ffffffffffffffffffffffffffffffffffffffff1642604051808373ffffffffffffffffffffffffffffffffffffffff1673ffffffffffffffffffffffffffffffffffffffff1681526020018281526020019250505060405180910390a2806000806101000a81548173ffffffffffffffffffffffffffffffffffffffff021916908373ffffffffffffffffffffffffffffffffffffffff16021790555050565b6000809054906101000a900473ffffffffffffffffffffffffffffffffffffffff1681565b60606003805480602002602001604051908101604052809291908181526020018280548015610f9057602002820191906000526020600020905b815481526020019060010190808311610f7c575b5050505050905090565b60606000806002600085815260200190815260200160002060020160026000868152602001908152602001600020600001546002600087815260200190815260200160002060010154828054600181600116156101000203166002900480601f0160208091040260200160405190810160405280929190818152602001828054600181600116156101000203166002900480156110785780601f1061104d57610100808354040283529160200191611078565b820191906000526020600020905b81548152906001019060200180831161105b57829003601f168201915b505050505092509250925092509193909250565b600160003373ffffffffffffffffffffffffffffffffffffffff1673ffffffffffffffffffffffffffffffffffffffff16815260200190815260200160002060009054906101000a900460ff16151561114d576040517f08c379a000000000000000000000000000000000000000000000000000000000815260040180806020018281038252601e8152602001807f596f7520617265206e6f74206f6e20746865207768697465206c6973742e000081525060200191505060405180910390fd5b60006002600083815260200190815260200160002060010154141515156111dc576040517f08c379a00000000000000000000000000000000000000000000000000000000081526004018080602001828103825260188152602001807f446f63756d656e7420646f6573206e6f742065786973742e000000000000000081525060200191505060405180910390fd5b60008090505b60038054905081101561127257816003828154811015156111ff57fe5b906000526020600020015414156112655760016003805490500381101561126057600360016003805490500381548110151561123757fe5b906000526020600020015460038281548110151561125157fe5b90600052602060002001819055505b611272565b80806001019150506111e2565b506003805480151561128057fe5b60019003818190600052602060002001600090559055807f3d9bba27d3e360d8c80645beed7e991454a8271bf6f269a24f7782be0f0d065460026000848152602001908152602001600020600201600260008581526020019081526020016000206000015460405180806020018381526020018281038252848181546001816001161561010002031660029004815260200191508054600181600116156101000203166002900480156113745780601f1061134957610100808354040283529160200191611374565b820191906000526020600020905b81548152906001019060200180831161135757829003601f168201915b5050935050505060405180910390a26002600082815260200190815260200160002060008082016000905560018201600090556002820160006113b7919061143c565b505050565b828054600181600116156101000203166002900490600052602060002090601f016020900481019282601f106113fd57805160ff191683800117855561142b565b8280016001018555821561142b579182015b8281111561142a57825182559160200191906001019061140f565b5b5090506114389190611484565b5090565b50805460018160011615610100020316600290046000825580601f106114625750611481565b601f0160209004906000526020600020908101906114809190611484565b5b50565b6114a691905b808211156114a257600081600090555060010161148a565b5090565b9056fea165627a7a72305820f3fcd8954f4f300769ff91c8af76842c64849179ac42b6821541d7141a50a5ab0029",
  "source": "\npragma solidity ^0.5.0;\n\n\n// // @title IERC1643 Document Management (part of the ERC1400 Security Token Standards)\n// /// @dev See https://github.com/SecurityTokenStandard/EIP-Spec\n\n// interface IERC1643 {\n\n//     // Document Management\n//     function getDocument(bytes32 _name) external view returns (string memory, bytes32, uint256);\n//     function setDocument(bytes32 _name, string calldata _uri, bytes32 _documentHash) external;\n//     function removeDocument(bytes32 _name) external;\n//     function getAllDocuments() external view returns (bytes32[] memory);\n\n//     // Document Events\n//     event DocumentRemoved(bytes32 indexed _name, string _uri, bytes32 _documentHash);\n//     event DocumentUpdated(bytes32 indexed _name, string _uri, bytes32 _documentHash);\n\n// }\n\n/**\n * @title WhiteList implementation of ERC1643 Document management\n */\ncontract WhiteListDocuments {\n\n    event AddToWhiteList(address indexed _added, address _by, uint256 _timestamp);\n    event RemoveFromWhiteList(address indexed _removed, address _by, uint256 _timestamp);\n    event TransferOwner(address indexed _newOwner, address _oldOwner, uint256 _timestamp);\n\n    // Document Events\n    event DocumentRemoved(bytes32 indexed _name, string _uri, bytes32 _documentHash);\n    event DocumentUpdated(bytes32 indexed _name, string _uri, bytes32 _documentHash);\n\n    struct Document {\n        bytes32 docHash; \n        uint256 lastModified; // Timestamp.\n        string uri; // location of the document that exist off-chain.\n    }\n\n    // owner of the contract.\n    address public owner;\n    // mapping to store authorized users.\n    mapping(address => bool) public whiteList;\n    // mapping from document name to the Document details.\n    mapping(bytes32 => Document) public documents;\n    // Array use to store all the document names present in the contracts.\n    bytes32[] documentNames;\n    \n    /// Initialize contract.\n    constructor() public {\n        owner = msg.sender;\n        whiteList[owner] = true;\n        emit AddToWhiteList(msg.sender, address(this), now);\n    }\n\n    modifier onlyOwner() {\n        require(msg.sender == owner, \"You are not the owner.\");\n        _;\n    }\n\n    modifier onlyWhiteList() {\n        require(whiteList[msg.sender], \"You are not on the white list.\");\n        _;\n    }\n\n    // Transfer ownership of the contract.\n    function transferOwner(address _newOwner) public onlyOwner {\n        if (!whiteList[_newOwner]) {\n            whiteList[_newOwner] = true;\n        }\n        whiteList[owner] = false;\n        emit RemoveFromWhiteList(owner, _newOwner, now);\n        emit TransferOwner(_newOwner, owner, now);\n        owner = _newOwner;\n    }\n\n    // Add user to the white list.\n    function addToWhiteList(address _add) public onlyOwner {\n        whiteList[_add] = true;\n        emit AddToWhiteList(_add, owner, now);\n    }\n\n    // Remove user from the white list.\n    function removeFromWhiteList(address _remove) public onlyOwner {\n        whiteList[_remove] = false;\n        emit RemoveFromWhiteList(_remove, owner, now);\n    }\n    \n    // Add/Update document.\n    function setDocument(bytes32 _name, string calldata _uri, bytes32 _documentHash) external onlyWhiteList {\n        if (documents[_name].lastModified == 0) documentNames.push(_name);\n        documents[_name] = Document(_documentHash, now, _uri);\n        emit DocumentUpdated(_name, _uri, _documentHash);\n    }\n\n    // Remove document.\n    function removeDocument(bytes32 _name) external onlyWhiteList {\n        require(documents[_name].lastModified != uint256(0), \"Document does not exist.\");\n        // Find element's index.\n        for (uint i=0; i<documentNames.length; i++) {\n            if (documentNames[i] == _name) {\n                // If element is not the last index, swap positions.\n                if (i < documentNames.length - 1) {\n                    documentNames[i] = documentNames[documentNames.length - 1];\n                }\n                break;\n            }\n        }\n        // Delete element.\n        documentNames.pop();\n        emit DocumentRemoved(_name, documents[_name].uri, documents[_name].docHash);\n        // Delete document.\n        delete documents[_name];\n    } \n\n    // Get document details.\n    function getDocument(bytes32 _name) external view returns (string memory, bytes32, uint256) {\n        return (documents[_name].uri, documents[_name].docHash, documents[_name].lastModified);\n    } \n\n    // Return array of all document names.\n    function getAllDocuments() external view returns (bytes32[] memory) {\n        return documentNames;\n    }\n\n}",
  "sourcePath": "/home/adam/DesignPaterns/dev-tools-truffle-example/contracts/WhiteListDocuments.sol",
  "compiler": {
    "name": "solc",
    "version": "0.5.0+commit.1d4f565a.Emscripten.clang"
  },
  "schemaVersion": "3.0.1",
  "updatedAt": "2019-02-09T08:05:42.047Z",
  "devdoc": {
    "methods": {},
    "title": "WhiteList implementation of ERC1643 Document management"
  },
  "userdoc": {
    "methods": {
      "constructor": "Initialize contract."
    }
  }
}